:100000000C9493060C94DA060C94DA060C94DA0637
:100010000C94DA060C94DA060C94DA060C94DA06E0
:100020000C94DA060C94DA060C94E72C0C94B92D97
:100030000C941D240C94DA060C94DA060C94DA065F
:100040000C94DA060C94DA060C94DA060C94DA06B0
:100050000C94DA060C9491240C94DA060C94DA06CB
:100060000C94DA060C94DA060C94DA060C94DA0690
:100070000C94DA060C94DA060C94DA060C94DA0680
:100080000C94DA060C94DA060C94DA060C94DA0670
:100090000C94DA060C94DA060C94DA060C94DA0660
:1000A0000C94DA060C94DA060C94DA06A908AB086C
:1000B000B608AD08AF08B108B308B508B808BA0863
:1000C000BC08C708BE08C008C208C408C608C908DA
:1000D0008A1A8A1ABC1ABC1AFC1A6D1C6D1C6D1C7B
:1000E0001C1B6D1CC91BC91B391C421C6D1C661CCA
:1000F000D61BD61BD61BD61BD61BD61BD61BD61B78
:10010000D61BD61BD61BD61BD61BD61BD61BD61B67
:10011000E51BF31BFA1B011C0B1CF81CF81C0A1D29
:100120000A1D011D0A1D0A1D0A1DF81CF81C061DCA
:100130000A1D0A1D061D262E4D2E3F2F4D2E3F2F28
:10014000992EBC2E3F2F122F212F07634236B79BCB
:10015000D8A71A39685618AEBAAB558C1D3CB7CC27
:100160005763BD6DEDFD753EF6177231BF0000009F
:10017000803F05A84CCDB2D44EB93836A9020C50F8
:10018000B9918688083CA6AAAA2ABE000000803F32
:1001900029001E001F00200021002200230024004F
:1001A0002500260027002D002E002A002B00140019
:1001B0001A000800150017001C0018000C0012009F
:1001C00013002F0030003100390004001600070032
:1001D00009000A000B000D000E000F003300340070
:1001E00028000000E1001D001B00060019000500AA
:1001F00011001000360037003800E1000000000058
:10020000E000E300E200000000002C00000000001D
:10021000000000000000E2000151E0003500000095
:1002200000000000000000000000000000000000CE
:100230000000000000004C00000000005200000020
:100240000000000000005F0060006100000000008E
:10025000000000000000500051004F0000000000AE
:1002600000005C005D005E00000000000000000077
:10027000000000000000000000000000000000007E
:1002800059005A005B000000000000000000000060
:10029000000000000000000000000000000000005E
:1002A000000001000000000044454255473A206527
:1002B0006E61626C65642E0A000A00253031366278
:1002C000003A200025303258000A722F6320303166
:1002D00032333435363738394142434445460A00D3
:1002E00054494D4552332064697361626C65642ED4
:1002F0000A0054494D45523320656E61626C656455
:100300002E0A007267626C696768742073657420D6
:10031000687376205B4E4F454550524F4D5D3A20F5
:1003200025752C25752C25750A007267626C696726
:1003300068742073657420687376205B454550525D
:100340004F4D5D3A2025752C25752C25750A0072B8
:1003500067626C69676874207261696E626F77208A
:10036000736574206873763A2025752C25752C25C5
:10037000642C25750A007267626C69676874206472
:10038000697361626C65205B454550524F4D5D3A23
:10039000207267626C696768745F636F6E66696715
:1003A0002E656E61626C65203D2025750A007267BE
:1003B000626C6967687420656E61626C65205B457C
:1003C0004550524F4D5D3A207267626C69676874A0
:1003D0005F636F6E6669672E656E61626C65203D56
:1003E0002025750A007267626C6967687420746FF3
:1003F00067676C65205B454550524F4D5D3A2072F2
:1004000067626C696768745F636F6E6669672E65A3
:100410006E61626C65203D2025750A007267626C12
:1004200069676874206D6F6465205B4E4F45455069
:10043000524F4D5D3A2025750A007267626C6967FC
:100440006874206D6F6465205B454550524F4D5D6B
:100450003A2025750A007267626C696768745F6983
:100460006E6974207267626C696768745F636F6E2F
:100470006669672E6D6F6465203D20302E205772AF
:100480006974652064656661756C742076616C754D
:10049000657320746F20454550524F4D2E0A0072EF
:1004A00067626C696768745F696E6974206565630B
:1004B0006F6E666967206973206E6F7420656E6168
:1004C000626C65642E0A007267626C696768745FAB
:1004D000696E6974207374617274210A00726762B4
:1004E0006C696768745F696E69742063616C6C65C0
:1004F000642E0A007267626C696768745F636F6E6E
:100500006669672E7370656564203D2025640A0066
:100510007267626C696768745F636F6E6669672E85
:1005200076616C203D2025640A007267626C696701
:1005300068745F636F6E6669672E736174203D2017
:1005400025640A007267626C696768745F636F6E26
:100550006669672E687565203D2025640A0072670C
:10056000686C696768745F636F6E6669672E6D6F2C
:100570006465203D2025640A007267626C696768C3
:10058000745F636F6E6669672E656E61626C65206D
:100590003D2025640A007267626C696768745F6356
:1005A0006F6E666967206570726F6D0A000004687F
:1005B00001F000B40078005A007F3F1F64321464D9
:1005C0003214783C1E1E140A0500000000000101D0
:1005D0000101010101010102020202020202020202
:1005E00003030303030303030404040404040505D1
:1005F0000505050606060606070707070808080892
:100600000909090A0A0A0A0B0B0B0C0C0C0D0D0D3B
:100610000E0E0F0F0F1010111111121213131414CC
:10062000151516161717181819191A1A1B1C1C1D40
:100630001D1E1F1F20202122222324252526272797
:1006400028292A2B2B2C2D2E2F2F303132333435C5
:1006500036363738393A3B3C3D3E3F4041424344D1
:10066000464748494A4B4C4D4F50515253555657A7
:10067000585A5B5C5E5F606263646667696A6C6D52
:100680006E707173747678797B7C7E8081838486CA
:10069000888A8B8D8F91929496989A9B9D9FA1A307
:1006A000A5A7A9ABADAFB1B3B5B7B9BBBDBFC1C409
:1006B000C6C8CACCCFD1D3D6D8DADCDFE1E4E6E8CD
:1006C000EBEDF0F2F5F7FAFCFF0A00253032582086
:1006D000006B6579626F6172645F7265706F7274CE
:1006E0003A20000A0025303258006B6579626F614C
:1006F00072645F7365745F6C65643A200064656C56
:100700005F6B65795F6269743A2063616E2774205C
:1007100064656C3A20253032580A006164645F6B6E
:1007200065795F6269743A2063616E277420616441
:10073000643A20253032580A003F00433E20004CE6
:1007400025640A0074696D65725F72656164333295
:1007500028293A202530346C580A006B65796D6180
:10076000705F636F6E6669672E6E6B726F3A2025DD
:10077000580A006B6579626F6172645F69646C65C9
:100780003A2025580A006B6579626F6172645F7068
:10079000726F746F636F6C3A2025580A00686F732C
:1007A000745F6B6579626F6172645F6C65647328F6
:1007B000293A2025580A000A092D205374617475BE
:1007C00073202D0A004743433A20342E392E32201D
:1007D0004156522D4C4942433A20312E382E307327
:1007E000766E204156525F415243483A20617672FC
:1007F000350A004F5054494F4E533A204C5546410C
:100800002045585452414B455920434F4E534F4C6D
:100810004520434F4D4D414E44204E4B524F2034C6
:100820003039360A004255494C443A202232383792
:1008300038343022202831383A31393A32302041A8
:1008400075672031392032303138290A0056494441
:100850003A2030784645454428534154414E29209A
:100860005049443A203078363036302847483630C0
:1008700029205645523A203078303030330A00442F
:100880004553433A20514D4B206B6579626F61723D
:1008900064206669726D7761726520666F7220539D
:1008A0006174616E2047483630207769746820573C
:1008B000533238313220737570706F72740A000AC7
:1008C000092D2056657273696F6E202D0A000A0982
:1008D0002D20436F6E736F6C65202D0A4553432F97
:1008E000713A09717569740A000A092D204D616712
:1008F0006963202D0A443A094465627567204D6595
:10090000737361676520546F67676C650A583A09AD
:100910004D6174726978204465627567204D6F641B
:100920006520546F67676C65202D2053686F7720B2
:100930006B65797072657373657320696E206D6184
:100940007472697820677269640A4B3A094B657959
:10095000626F61726420446562756720546F6767D7
:100960006C65202D2053686F77206B6579707265F8
:100970007373207265706F72740A4D3A0944656230
:100980007567204D6F75736520546F67676C650AD6
:10099000563A0956657273696F6E0A533A09537471
:1009A000617475730A433A094163746976617465C9
:1009B00020436F6E736F6C65204D6F64650A46311E
:1009C0002D4631303A0953776974636820746F207B
:1009D0004C6179657220302D392028463130203D18
:1009E000204C30290A302D393A09537769746368ED
:1009F00020746F204C6179657220302D390A45537F
:100A0000433A0953776974636820746F204C6179A5
:100A1000657220302028616C7465726E6174652087
:100A20006B65792031290A47524156453A09537777
:100A30006974636820746F204C617965722030207E
:100A400028616C7465726E617465206B6579203203
:100A5000290A50415553453A094A756D7020746F03
:100A600020426F6F746C6F616465722028526573E9
:100A70006574290A4E3A094E4B524F20546F6767EE
:100A80006C650A003F004E4B524F3A206F66660A73
:100A9000004E4B524F3A206F6E0A000A6D6F75730D
:100AA000653A206F66660A000A6D6F7573653A20B5
:100AB0006F6E0A000A6B6579626F6172643A206F2B
:100AC00066660A000A6B6579626F6172643A206F2C
:100AD0006E0A000A6D61747269783A206F66660A60
:100AE000000A6D61747269783A206F6E0A000A64B8
:100AF000656275673A206F66660A000A646562750A
:100B0000673A206F6E0A000A0A4A756D70696E674F
:100B100020746F20626F6F746C6F616465722E2E2B
:100B20002E2000433E20006261636B6C696768742D
:100B300020737465703A2025750A006261636B6CDE
:100B40006967687420746F67676C653A2025750A59
:100B5000006261636B6C69676874206465637265C9
:100B60006173653A2025750A006261636B6C696781
:100B7000687420696E6372656173653A2025750A31
:100B8000005B735D004B6579626F61726420737402
:100B90006172742E0A005B575D005B535D005B520F
:100BA0005D005B445D005B435D00040330000000BA
:100BB0000A03470048003600300000000C035300D1
:100BC0004100540041004E000000040309040902E2
:100BD0007400040100A0FA090400000103010100EF
:100BE0000921110100012240000705810308000AC4
:100BF0000904010001030000000921110100012284
:100C000036000705820308000A09040200020300F7
:100C100000000921110100012222000705830320A1
:100C2000000107050303200001090403000103007C
:100C30000000092111010001223900070584032069
:100C400000011201100100000008EDFE60600300C9
:100C50000102030105010906A101050719E029E7C1
:100C6000150025019508750181020508190129055E
:100C7000950575019102950175039101050719000C
:100C800029F71500250195F875018102C00631FF8D
:100C90000974A1010975150026FF009520750881CA
:100CA000020976150026FF00952075089102C005FF
:100CB000010980A10185021601002603001A8100A6
:100CC0002A8300751095018100C0050C0901A1015E
:100CD0008503160100269C021A01002A9C02751049
:100CE00095018100C005010906A101050719E02948
:100CF000E7150025019508750181029501750881A8
:100D000001050819012905950575019102950175DF
:100D10000391010507190029FF150026FF0095061C
:100D200075088100C00011241FBECFEFDAE0DEBFDE
:100D3000CDBF04B603FE27C08091520290915302AA
:100D4000A0915402B09155028730904BA740B04B10
:100D5000D1F4109252021092530210925402109247
:100D6000550214BE84B7877F84BF0FB6F894A89548
:100D700080916000886180936000109260000FBED7
:100D8000E0E0F8E3099511E0A0E0B1E0E6E1F7E684
:100D900002C005900D92A633B107D9F722E0A6E371
:100DA000B1E001C01D92A235B207E1F70E94002A0E
:100DB0000C9489330C940000FF93EF93E09136017B
:100DC000F0913701309709F00995EF91FF9108955F
:100DD000FC018591803011F0EFDFFBCF0895FF27F4
:100DE000E0E230E247FF0CC0419597FF09C0EDE219
:100DF0006095709580959095611D711D811D911D67
:100E000027FF02C0219530E350E2AA27660F771F23
:100E1000881F991FAA1FA41710F0A41B63955A9549
:100E2000A9F7AA3008F0A95FA05DAF93F39561150B
:100E300071058105910541F7ED3211F4EF93F395BA
:100E4000F21718F43F93F395FBCF8F91B5DFFA9526
:100E5000E1F70895E991F9918591803021F085328B
:100E600019F0AADFF9CF089520E0E89455915532A2
:100E7000C1F3503311F4689455915A3348F45053E8
:100E800090F3220F022E220F220F200D250FF4CFF8
:100E90000EF4219589919991533619F3533729F11D
:100EA000533559F1BC0188279927E8945C3621F421
:100EB0008991999168945591543639F446EF7EF0B2
:100EC00077FF0DC08FEF9FEF0AC055374AE039F02A
:100ED000583540E121F0523642E009F00895FF9381
:100EE000EF937DDFEF91FF91B7CFFF93EF93FC017D
:100EF00081918030B9F360DFFBCFFF93EF9368DF20
:100F0000F1CFDF93CF93CDB7DEB72596A3DFCF9197
:100F1000DF9108950C94960D229A08950E94950DE4
:100F20000C948C0781FF02C02A9808952A9A08958C
:100F300081E0089581E008950C949A070C948A0743
:100F4000CF92DF92EF92FF92853030F4811105C08D
:100F5000909180009F7D04C084E090918000906219
:100F600090938000282F30E0AFEFBFEF0E9427332F
:100F7000DC01CB0142E0B695A795979587954A95F8
:100F8000D1F78C3724E19207A105B10528F469E077
:100F900070E00E94D73227C08A50974DAF4FBF4FA5
:100FA0006627782F892F9A2F25EF38E241E050E00D
:100FB0000E94FF3269017A01CA01B9010E94BB3265
:100FC0009B01AC01C701B6010E94BB32BB27A92F10
:100FD000982F872F009721E0A207B10511F0BC01DF
:100FE00002C06FEF7FEF70938B0060938A00FF90D9
:100FF000EF90DF90CF900895269A2E9882E280930A
:10100000800089E1809381008FEF9FEF90938700AC
:10101000809386000C94AD260E94FC070C948E07EA
:101020000C94920708950E94E61C0E9412082FEF6C
:1010300084E39CE0215080409040E1F700C0000034
:101040000C94B7240F931F93CF93DF938C01FC0173
:10105000C081D181CE010E94BB21BE010E94B00A95
:10106000EC01B8010E949C07882309F46FC2B80103
:10107000CE010E94460D882309F468C2C93CFCE5F4
:10108000DF0741F4F8018281882309F45FC20E94DE
:1010900006105CC2CA3C8CE5D80708F016C1C13CFA
:1010A0009CE5D90761F4F8018281882309F44EC2D6
:1010B0000E946D228272F1F00E94FE1247C2C23C71
:1010C000ECE5DE07D0F0F8018281C53CFCE5DF07E6
:1010D00009F4D0C008F0E0C0C33CECE5DE0709F439
:1010E000CFC008F0D3C0882309F430C20E946D221B
:1010F000827211F30E94F41229C2C531FCE5DF07A8
:1011000008F081C0C2308CE5D80708F452C0F8015D
:101110008281882309F459C00E940423811102C0EE
:101120000E94DE220E94172390E090934302809356
:101130004202FE01E350FC45E231F10530F4EA5A87
:10114000FF4F809142020C942133809142028160D2
:1011500027C0826025C0846023C0806121C0806276
:101160001FC080641DC080681BC08460886018C078
:101170008E7F16C08D7F14C08B7F12C08F7E10C0F3
:101180008F7D0EC08F7B0CC08F770AC08B7F877FCF
:1011900007C087FB222720F991E0922790FB87F96F
:1011A00080934202809142020E941B230E94E61C0F
:1011B000CDC1C1159CE5D90779F0C130DC45A1F05E
:1011C00081E080933D0180933E01C801DF91CF9182
:1011D0001F910F910C949807F8018281882309F4DC
:1011E000B5C10E941308B2C1F8018281882309F4B5
:1011F000ADC18091F80181608093F80188EA92E0A6
:101200000E94E806A3C1C531FCE5DF0739F50E945D
:101210006D22282FF8018281409102015091030133
:10122000882379F02A7A91E009F490E090933801CC
:10123000911102C069E201C065E3CA010E94A723BF
:101240000AC080913801811102C069E201C065E3E2
:10125000CA010E94B2230E943A2278C1C03CDC45F8
:1012600009F0AECFF8018281882309F46FC10E9492
:10127000AE136CC1882309F469C10E94CC1166C108
:10128000882309F463C10E94951160C1882309F481
:101290005DC10E94AD115AC1C73C9CE5D90731F42C
:1012A000882309F453C10E94011250C1C83CDC4597
:1012B00030F4882309F44AC10E94E71147C188230A
:1012C00009F444C10E941C1241C1C13DFCE5DF0785
:1012D00049F4F8018281882309F438C188E10E9429
:1012E000F11234C1C23D8CE5D80708F087C0F8017F
:1012F0008281CD3CFCE5DF07A1F4882309F426C1F7
:101300000E94F80F663071058105910540F00E943A
:10131000F80F683071058105910508F4EBCE86E081
:10132000DECFCE3C9CE5D90730F5CB3CECE5DE07C3
:1013300029F4882309F40AC181E0D1CFCC3CDC45F3
:1013400030F4882309F402C10E941B10FFC08823D7
:1013500009F4FCC00E94F80F623071058105910507
:1013600040F00E94F80F653071058105910508F481
:10137000C1CE82E0B4CFCF3C9CE5D907A1F488234D
:1013800009F4E4C00E94F80F6F30710581059105E2
:1013900040F00E94F80F643171058105910508F451
:1013A000A9CE8FE09CCFC03DDC45A0F4882309F492
:1013B000CDC00E94F80F693071058105910540F09C
:1013C0000E94F80F6E3071058105910508F492CEE8
:1013D00089E085CF882309F4B9C00E94F80F6531F0
:1013E00071058105910540F00E94F80F6731710584
:1013F0008105910508F47ECE85E171CFC53DFCE500
:10140000DF0739F5F8018281882361F010923E01EF
:101410000E944F2490933C0180933B0180E20E9404
:10142000461A94C080913E0181110FC080913B010A
:1014300090913C010E946724883C910530F487E23A
:101440000E94D81887E20E94E71980E20E944D1A94
:101450007DC0C63D8CE5D80708F043C0F801828105
:10146000C33DFCE5DF0729F4882309F46FC083E25C
:1014700036CFC43DDC45A0F4882309F467C00E9440
:10148000F80F693171058105910540F00E94F80F50
:10149000623271058105910508F42CCE89E11FCFD8
:1014A000882351F010923D010E944F2490933A01FD
:1014B0008093390182E0B3CF80913D0181110FC04B
:1014C0008091390190913A010E946724883C9105EE
:1014D00030F486E20E94D81886E20E94E71982E082
:1014E000B5CFC93DECE5DE0731F4F80182818823F0
:1014F00069F180E009C0CA3DFCE5DF0741F4F8016D
:101500008281882319F182E00E94AA2A1FC0C63D69
:10151000DC4509F055CEF8018281811177CF8091A9
:101520003E01811192CF80913B0190913C010E943C
:101530006724883C910508F088CF80E20E944D1A0C
:1015400088E20E94D81888E20E94E71980E0DF91C3
:10155000CF911F910F91089580E090E00895089534
:101560009EE0799FF001112496E4899FE00DF11D22
:101570001124E60FF11DEE0FFF1FE057FE4F85917E
:1015800094910895880F991FFC01E754FD4F8591B0
:1015900094910895CF93DF930E94B00A0E94A50C06
:1015A000EC01811521E5920708F042C0811530E574
:1015B000930708F01EC1883E910500F5803E910515
:1015C00008F0BFC1883A910570F4853A910508F09A
:1015D0009DC08130910509F4B4C108F46BC1049732
:1015E00008F0AFC167C18D3B910508F49AC0803CFB
:1015F000910508F45FC1805C9109EBC0811540E35F
:10160000940780F4811550E2950708F0E1C0803F0F
:10161000910508F44FC18F3F910511F008F091C179
:10162000D0658FC1811560E4960708F0DFC0D5C092
:10163000C11589E5D80740F5C11528E5D20708F09E
:1016400025C1C11534E5D30778F4C11543E5D407A6
:1016500008F001C1C11552E5D50708F0E6C0DC2F3E
:10166000CC27C16FD06A6DC1C11565E5D60708F4F6
:1016700008C1C11586E5D80708F01CC1CF71DD2768
:10168000DC2FCC27D0625DC1CB3B2CE5D20709F41F
:1016900008C1D8F4C93B4CE5D40709F4FCC008F0F4
:1016A000FDC0C1156AE5D60708F004C18C2F8F7004
:1016B000806E90E0906A24E0D695C7952A95E1F770
:1016C000CF709C013C2BE9013CC1CE3B8CE5D80797
:1016D00009F4EDC060F4CC3B3CE5D30709F4E4C069
:1016E000CD3BDC4509F0E6C0C0E0D2ED2AC1CE0119
:1016F00090568115904208F0DDC08D2F8F710E94A9
:10170000220DDD27D0628F71D82B1BC1853A910540
:1017100009F4D3C0863A910509F0D2C0C2E8D0E4FA
:1017200010C1883A910509F4CEC0893A910509F4AF
:10173000CDC08A3A910509F4CCC08B3A910509F4E1
:10174000CBC08C3A910509F4CAC08B3B910509F4D2
:10175000C9C08C3B910509F4C8C08D3A910509F4C4
:10176000C7C0803B910509F4C6C08E3A910509F4C3
:10177000C5C08F3A910509F4C4C0813B910509F4B5
:10178000C3C0823B910509F4C2C0833B910509F4B3
:10179000C1C0843B910509F4C0C0853B910509F4A3
:1017A000BFC0863B910509F4BEC0873B910509F493
:1017B000BDC0883B910509F4BCC0893B910509F483
:1017C000BBC08A3B910509F4BAC0C0E0D4E4B9C0FB
:1017D0009F700E94C20AEC01B4C09927D3FF03C0D6
:1017E000EC01D86CAEC0EC01D06CABC0DF70D06A3D
:1017F000A8C0282F237081E090E002C0880F991FB5
:101800002A95E2F79C689E0174E0369527957A95B3
:10181000E1F72370922BCF70C695C69560E2C69F04
:10182000E0011124C82BD92B8CC02C2F269526958E
:1018300080E2289F90011124C370DD2781E090E0B1
:10184000AC0102C0440F551FCA95E2F7EA01C22B52
:10185000D32BDC6876C02C2F2695269580E2289F16
:1018600090011124C370DD2781E090E0AC0102C03B
:10187000440F551FCA95E2F7EA01C22BD32BDA6851
:1018800060C0DC2FCC27C46FD06A5BC0DC2FCC27B4
:10189000C06FD06A56C0C0E0D4ED53C0C0E0D5EDF3
:1018A00050C0C0E0D1ED4DC0C0E0D0ED4AC0C0E0B6
:1018B000D3ED47C0C0E0D0E044C0C1E8D0E441C0AF
:1018C000C3E8D0E43EC0C2EED4E43BC0C9EED4E4E9
:1018D00038C0CAEED4E435C0C5EBD4E432C0C6EBA0
:1018E000D4E42FC0C3EBD4E42CC0C4EBD4E429C0AF
:1018F000C7EBD4E426C0CCECD4E423C0CDECD4E4D4
:1019000020C0C3E8D5E41DC0CAE8D5E41AC0C2E9C6
:10191000D5E417C0C4E9D5E414C0C1E2D6E411C0CF
:10192000C3E2D6E40EC0C4E2D6E40BC0C5E2D6E4FE
:1019300008C0C6E2D6E405C0C7E2D6E402C0CAE2E7
:10194000D6E4CE01DF91CF9108958238910549F117
:10195000B0F48133910509F458C048F489329105F7
:1019600009F44EC08A32910509F454C008958533B4
:10197000910509F440C08933910599F00895833E9B
:10198000910529F138F4803E910591F0823E910550
:10199000A1F00895863E9105F9F0873E910531F159
:1019A00008952091420220FD3AC021FD38C00895DB
:1019B0008091420280FD35C032C08091420282FF98
:1019C00032C08091420284FD30C083EE39C08091E4
:1019D000420282FD28C0F5CF8091420283FF27C0DA
:1019E0008091420284FD21C087EE2AC0809142028C
:1019F00083FD1DC0F5CF8091420285FD1AC01BC03A
:101A00008091420285FD17C014C08091420286FD7C
:101A100014C015C08091420286FD11C00EC080EE38
:101A20000FC089E30DC082EE0BC080E009C086EED6
:101A300007C089E205C085E303C08AE201C081E3F3
:101A400090E008959091420292FF0DC0282F2871D6
:101A5000283019F4877F846006C0282F2471243031
:101A600011F48B7F886093FF0DC0282F28712831D7
:101A700019F4877E846106C0282F2471243111F463
:101A80008B7E886194FD877E089508950F931F9340
:101A9000CF93FB012281211102C0C1E041C08C0122
:101AA000C0914C01C11125C086319C45B1F70E94FF
:101AB000450D81E080934C010E944F2490934B018F
:101AC00080934A0110923F0110924101109240010F
:101AD000109243011092420110924501109244016C
:101AE000109247011092460110924901109248014C
:101AF00017C080914A0190914B010E9467248C325B
:101B0000914058F690913F01E92FF0E0EE0FFF1F52
:101B1000E05CFE4F118300839F5F90933F01C0E024
:101B20008C2FCF911F910F91089508950895ADE1E5
:101B3000B1E041E050E025E02A0F8D91E82FE295D9
:101B4000EF70F0E031A18F70BA0102C0660F771F0D
:101B50008A95E2F7CB01962F9095932391A392A1BA
:101B6000892B82A32A13E9CFAFE0B1E041E050E036
:101B70002EE02A0F8D91E82FE295EF70F0E031A171
:101B80008F70BA0102C0660F771F8A95E2F7CB010A
:101B9000962F9095932391A392A1892B82A32A1328
:101BA000E9CFE7E5F1E0ADE4B1E0119211921D92C9
:101BB0001D9271E0E136F707C1F70C940C082F92E3
:101BC0003F925F926F927F928F929F92AF92BF925D
:101BD000CF92DF92EF92FF920F931F93CF93DF93F9
:101BE0002DE1C22E21E0D22E0DE411E0E801EE2419
:101BF000E394F12C662463945E01888099801982B5
:101C00001882D6018D916D01E82FE295EF70F0E01A
:101C100021A18F70A70102C0440F551F8A95E2F7DA
:101C2000CA01242B21A322A1742E7094272122A360
:101C300050EA5A95F1F79FE0292E91E0392E20E0E5
:101C400030E0D1017D911D01472F42954F7050E04A
:101C5000DA0190965C90488159817F70D70102C06B
:101C6000AA0FBB1F7A95E2F7BD01652141F4B701C8
:101C7000022E02C0660F771F0A94E2F702C060E0EE
:101C800070E0462B572B598348832F5F3F4F2E30F0
:101C90003105B9F691A1792271A292A1892B82A373
:101CA0002296F501808191818816990641F0609213
:101CB00061010E944F249093630180936201F1E0DF
:101CC000C735DF0709F098CF809161018823B1F013
:101CD00080916201909163010E946724069770F0E1
:101CE000E7E5F1E0D8018D919D918D01819391936C
:101CF000B1E007351B07B1F7109261010E949E0702
:101D000081E0DF91CF911F910F91FF90EF90DF90D5
:101D1000CF90BF90AF909F908F907F906F905F908B
:101D20003F902F900895E82FF0E0EE0FFF1FE95A43
:101D3000FE4F808191810895CF92DF92EF92FF92C2
:101D40000F931F93CF93DF9389EC92E00E94E806F4
:101D500087E5E82E81E0F82EC0E0D0E094ECC92EB3
:101D600092E0D92E0BEB12E0DF93CF93DF92CF926C
:101D70000E94810781EC92E00E94E806F7018191C0
:101D800091917F010E94C4229F938F931F930F9381
:101D90000E94810789EB92E00E94E80621968DB7A8
:101DA0009EB708960FB6F8949EBF0FBE8DBFC53084
:101DB000D105D1F6DF91CF911F910F91FF90EF9058
:101DC000DF90CF900895EF92FF920F931F93CF93E0
:101DD000DF93E901662309F44BC0242F30E0EFEFD5
:101DE000F0E0E61BF109B901E69F9001E79F300D95
:101DF000F69F300D1124232F8B01031B11095CE387
:101E0000E52EF12CB7010E94D732FB01BC01069FE1
:101E1000C001079F900D169F900D1124B7010E94DD
:101E2000D732E230F105B1F040F4309779F03197D4
:101E300011F5832F242F461B21C0E430F105A1F0BA
:101E400068F03597C1F4842F861B18C0832F262F86
:101E5000230F14C0862F830FE42F03C0E42FE61B4B
:101E6000842F432F2E2F0AC0842F462F430F06C0E6
:101E7000842F242F03C080E020E040E0E42FF0E036
:101E8000E753FA4F4491E22FF0E0E753FA4F949171
:101E9000E82FF0E0E753FA4FE49149839883EA830F
:101EA000DF91CF911F910F91FF90EF90089588E0FF
:101EB00090E00C944933AB01BC0188E090E00C94B5
:101EC0006733E1E2F2E083E08083109222028FEF39
:101ED00082838383148260817181828193810C94D7
:101EE0005B0F8091F80180FF08C086E995E09F9321
:101EF0008F930E9481070F900F908091F80180FFCF
:101F00000FC08091210281701F928F9389E795E025
:101F10009F938F930E9481070F900F900F900F90C7
:101F20008091F80180FF10C08091210286958F7307
:101F30001F928F938EE595E09F938F930E94810768
:101F40000F900F900F900F908091F80180FF19C0B3
:101F500080912102881F8827881F90912202292FB3
:101F6000220F822B97FB992790F99F938F9384E4FC
:101F700095E09F938F930E9481070F900F900F9091
:101F80000F908091F80180FF0EC0809123021F9274
:101F90008F938AE295E09F938F930E9481070F9021
:101FA0000F900F900F908091F80180FF0EC08091EC
:101FB00024021F928F9380E195E09F938F930E945C
:101FC00081070F900F900F900F908091F80180FF84
:101FD0000EC0809125021F928F9384EF94E09F930F
:101FE0008F930E9481070F900F900F900F9008958C
:101FF0006091210260FF06C066956F7370E080E01B
:1020000090E0089560E070E0CB0108958091250292
:1020100090E001968430910514F083E090E0809385
:1020200025026091210270912202809123029091F9
:1020300024020C945B0F8091250290E0019797FF9A
:1020400002C080E090E08430910514F083E090E0DD
:1020500080932502609121027091220280912302D7
:10206000909124020C945B0F8091210280FF06C0A6
:1020700068E070E086E292E00C94221780E090E045
:10208000FC01EA5DFD4F11821082128203968831B5
:102090009105B1F7EDCF9091210290FF0FC020E0A4
:1020A00030E0F901EA5DFD4F8183608342832D5F5B
:1020B0003F4F28313105A9F70C9434100895CF9380
:1020C000DF9300D01F92CDB7DEB72091210220FF11
:1020D0000AC09E012F5F3F4F0E94E30E4B81698132
:1020E0008A810E944B100F900F900F90DF91CF913B
:1020F00008952F923F924F925F926F927F928F92AC
:102100009F92AF92BF92CF92DF92EF92FF920F9386
:102110001F93CF93DF93CDB7DEB727970FB6F89411
:10212000DEBF0FBECDBF8C01262E342E2D838091B5
:10213000210280FFDEC0982F9E77923061F49E01CD
:102140002F5F3F4FC8010E94E30E4B8169818A8156
:102150000E944B1081C0E82FE695EF739EE39E0F1F
:102160009F73943018F43090240276C09AE39E0F47
:102170009F73993068F4881F8827881F90912202E6
:10218000292F220F022F082B97FB112710F964C06B
:1021900087E28E0F8F738A3008F05EC0F0E0799787
:1021A000E0FD03C021E02C8302C03FEF3C83EE7FC3
:1021B000E155FA4F859094908C81682E880F7708AE
:1021C000C40123E0969587952A95E1F7689E200142
:1021D000699E500C789E500C1124580198E9A91A58
:1021E0009EEFB90A36E2C32E32E0D32EE12CF12C59
:1021F000C50168E671E00E94D7322091F80120FF06
:1022000018C09F928F927F92AC81AF939F938F93D0
:10221000FF92EF92AFE4B3E0BF93AF938E839F83BF
:102220000E9481070FB6F894DEBF0FBECDBF9F811D
:102230008E819601432D622D0E94E30EBFEFEB1AB3
:10224000FB0AA40CB51C23E0C20ED11C38E0E31637
:10225000F10471F60E9434108091210200FB87F98D
:1022600080932102809122028078902F9695892B6D
:1022700010FB87F9809322022092230230922402DD
:102280008D81882321F16091210270912202809139
:102290002302909124020E945B0F809124021F92DE
:1022A0008F93809123021F928F9380912102881F28
:1022B0008827881F90912202292F220F822B97FBBB
:1022C000992790F99F938F938AE293E009C01F9218
:1022D0003F921F922F9211701F930F9383E093E010
:1022E0009F938F930E9481070FB6F894DEBF0FBEB5
:1022F000CDBF27960FB6F894DEBF0FBECDBFDF91DE
:10230000CF911F910F91FF90EF90DF90CF90BF90F2
:10231000AF909F908F907F906F905F904F903F9085
:102320002F90089521E00C947910E1E2F2E02081F1
:10233000221F2227221F30912202432F440F842F75
:10234000822B37FB992790F90A9668E671E00E9484
:10235000EB32438162810C94921120912102221F61
:102360002227221F30912202432F440F842F822BD9
:1023700037FB992790F98A3091051CF4825A9E4FB9
:1023800001C00A9768E671E00E94EB324091240296
:10239000609123020C94921160912302862F90E0A9
:1023A0008F3E910514F46F5E01C06FEF80912102A2
:1023B000881F8827881F90912202292F220F97FBC0
:1023C000992790F940912402822B0C9492116091EC
:1023D0002302862F90E0419714F0615101C060E024
:1023E00080912102881F8827881F90912202292F1F
:1023F000220F97FB992790F940912402822B0C948D
:10240000921140912402842F90E08F3E910514F4A4
:102410004F5E01C04FEF80912102881F8827881FDF
:1024200090912202292F220F97FB992790F9609112
:102430002302822B0C94921140912402842F90E06D
:10244000419714F0415101C040E080912102881F62
:102450008827881F90912202292F220F97FB992706
:1024600090F960912302822B0C94921120E00C943D
:1024700079109091210290FF10C0283070F430E064
:10248000F901EE0FFF1F2E0F3F1FF901EA5DFD4F0F
:102490008183608342830C94341008951F93CF93FB
:1024A000DF9300D01F92CDB7DEB73091210230FF0D
:1024B0000CC0122F9E012F5F3F4F0E94E30E212F71
:1024C0004B8169818A810E9439120F900F900F9081
:1024D000DF91CF911F91089581E0809381018091D8
:1024E000F80180FF08C082EF92E09F938F930E94D3
:1024F00081070F900F900895109281018091F8014B
:1025000080FF08C080EE92E09F938F930E94810726
:102510000F900F9008959091210290FF61C09178E3
:10252000811102C0926007C0853210F0986403C028
:102530008F73880F982B90932102662399F06091F6
:1025400021027091220280912302909124020E9424
:102550005B0F8091210286958F731F928F938AE380
:1025600094E008C08091210286958F731F928F930B
:102570008CE194E09F938F930E9481070F900F90BE
:102580000F900F9080912102982F9E77923019F42E
:102590000E947C1212C086958F732EE3280F2F7332
:1025A000273120F0963411F0983419F40E946C12FF
:1025B00004C0895D8F738A3058F380912102881F8F
:1025C0008827881F90912202292F220F97FB992795
:1025D00090F94091240260912302822B0C943612D0
:1025E000089561E00C948B128091210286958F737F
:1025F0008F5F853208F081E00C94F1128091210206
:1026000086958F73815009F484E20C94F112CF9374
:10261000DF93C1E2D2E08881816088831F9281E0EC
:102620008F938EEA93E09F938F930E9481070F9080
:102630000F900F900F90888186958F73DF91CF91C7
:102640000C94F11260E00C948B128091F80181607F
:102650008093F8018DED94E09F938F930E94810702
:102660008091F8010F900F9080FF08C087EC94E0F4
:102670009F938F930E9481070F900F900E940423D5
:10268000811110C08091F80180FF08C08FE994E0AB
:102690009F938F930E9481070F900F900E94DE22DC
:1026A0000E94610F0E94570F6093210270932202D3
:1026B00080932302909324026E77C1F48091F801F5
:1026C00080FF08C086E594E09F938F930E94810766
:1026D0000F900F900E94610F0E94570F609321028C
:1026E0007093220280932302909324020E94710F20
:1026F00081E0809381018091210280FF04C0869552
:102700008F730C9422130895CF93DF93C1E2D2E02C
:1027100088818E7F8883688179818A819B810E94EC
:102720005B0F888181701F928F9386E793E09F9360
:102730008F930E9481070E947C122FEF80E792E026
:10274000215080409040E1F700C000000F900F90B2
:102750000F900F90DF91CF910C9434108091210253
:10276000809581701F928F9385EE93E09F938F9356
:102770000E948107809121020F900F900F900F907F
:1027800080FD0C9484130C940713CF93C82F809171
:102790007F01909180010E946724EC2FF0E0EB53C1
:1027A000FA4FE491F0E08E179F0708F443C00E94AF
:1027B0004F249093800180937F0160917E0170E0AF
:1027C00080E090E00E94BC3020E030E04FE753E42E
:1027D0000E94DF2F2BED3FE049E450E40E94E531F9
:1027E0000E9452320E9459302BE43AE34EE25FE3FA
:1027F0000E94722F20EF3BEF48ED52E40E94E5313A
:102800000E948B30462F80912102881F8827881FC5
:1028100090912202292F220F97FB992790F960911E
:102820002302822B0E945F1080917E0190E001962E
:1028300080937E01CF910895CF93C82F80917C0122
:1028400090917D010E946724EC2FF0E0EE53FA4F47
:10285000E491F0E08E179F07E8F00E944F249093D8
:102860007D0180937C01409124026091230280913C
:102870007A0190917B010E945F1080917A01909182
:102880007B01019668E671E00E94D73290937B014C
:1028900080937A01CF910895CF92DF92FF920F93A8
:1028A0001F93CF93DF93F82E809178019091790157
:1028B0000E946724EF2DE695F0E0E154FA4FE49191
:1028C000F0E08E179F07E8F10E944F249093790162
:1028D0008093780106E212E0C0E0D0E088E6C82EDE
:1028E000DD24D39480917601909177018C0F9D1F08
:1028F000B6010E94D73298014091240260912302D0
:102900000E94E30EAD960D5F1F4FC83681E0D807D9
:1029100049F70E9434102091760130917701F0FE42
:102920000AC0C9010196BE010E94D7329093770177
:102930008093760106C021503109309377012093AE
:102940007601DF91CF911F910F91FF90DF90CF9093
:102950000895AF92BF92CF92DF92EF92FF920F93C2
:102960001F93CF93DF93C82F80FF02C01FEF01C0DA
:1029700011E080917401909175010E946724C695C1
:10298000EC2FF0E0E454FA4FE491F0E08E179F074B
:1029900008F465C00E944F249093750180937401E0
:1029A00026E2C22E22E0D22E38E2E32E32E0F32ECF
:1029B000C0E0D0E0F70131971082F6011082F701F4
:1029C000108294E0A92EB12C00E080917301800F59
:1029D00087FD885F082E000C990BC817D907E9F40A
:1029E000809124028A9DA0018B9D500D1124559544
:1029F00047955595479580912102881F8827881F04
:102A000090912202592F550F97FB992790F9960123
:102A100060912302852B0E94E30E010FF1E0AF1AB3
:102A2000B10899F6219683E0C80ED11CE3E0EE0EC2
:102A3000F11CC830D10509F0BDCF0E94341080913F
:102A40007301113031F4811102C087E006C081505A
:102A500004C090E001968770992780937301DF91FD
:102A6000CF911F910F91FF90EF90DF90CF90BF908B
:102A7000AF900895EF92FF920F931F93CF93DF9340
:102A8000C82F80917101909172010E946724EC2FF0
:102A9000F0E0E754FA4FE491F0E08E179F0708F456
:102AA00064C00E944F24909372018093710180E072
:102AB00090E0FC01EA5DFD4F1182108212820396C4
:102AC00088319105B1F786E2E82E82E0F82E08E21F
:102AD00012E0C0E0D0E080917001082E000C990B4C
:102AE000C817D907ECF080910101082E000C990B52
:102AF0008C179D07ACF080912102881F8827881FC2
:102B000090912202592F550F97FB992790F9970121
:102B10004091240260912302852B0E94E30E07C09E
:102B2000F80131971082F7011082F8011082219686
:102B3000F3E0EF0EF11C0D5F1F4FC830D10559F6C1
:102B40000E9434108091000190917001980F909331
:102B5000700120910101280F20930101121614F435
:102B600097301CF0819580930001DF91CF911F91E8
:102B70000F91FF90EF900895EF92FF920F931F93A4
:102B8000CF93DF9380916E0190916F010E94672433
:102B9000883E9340D0F10E944F2490936F01809320
:102BA0006E01C0916C01D0916D012196C170DD273D
:102BB000D0936D01C0936C0186E2E82E82E0F82E7E
:102BC00010E008E7812F8695FE01E80FF11DCF0187
:102BD0008170992797014091240260912302FC01A2
:102BE0000E9FC0010F9F900D11240E94E30E1F5FE6
:102BF000F3E0EF0EF11C183029F7DF91CF911F9110
:102C00000F91FF90EF900C943410DF91CF911F91B2
:102C10000F91FF90EF900895CF93DF9300D01F9214
:102C2000CDB7DEB780916A0190916B010E94672455
:102C3000EDEAF5E02591349182179307C0F1809178
:102C4000690181110CC09E012F5F3F4F4FEF6FEF65
:102C500080E090E00E94E30E8A81809369010E94E7
:102C60004F2490936B0180936A01809168018130B9
:102C700051F028F0823061F4409169010AC08091DE
:102C8000690140E007C06091690140E080E003C055
:102C900040E080E060E00E944B108091680190E08D
:102CA000019663E070E00E94EB32809368010F9020
:102CB0000F900F90DF91CF910895CF93DF93809184
:102CC0006601909167010E946724843F914008F457
:102CD00044C00E944F249093670180936601C0E036
:102CE000D0E02091640130916501809121029091A2
:102CF0002202C430D1051CF4232B79F002C0232B0F
:102D000061F4881F8827881F392F330F97FB992775
:102D100090F92C2F409124020AC0881F8827881F11
:102D2000392F330F97FB992790F92C2F40E06091B2
:102D30002302832B0E944E122196C830D10589F6BA
:102D40000E94341080916401909165010196817018
:102D500099279093650180936401DF91CF91089545
:102D6000809181018823D9F190912102892F869544
:102D70008F732EE3280F2F73243018F482500C9495
:102D8000C5132AE3280F2F73233018F486500C94B0
:102D90001C1427E3280F2F73263018F489500C9445
:102DA0004C1421E3280F2F73263018F48F500C9405
:102DB000A9142BE2280F2F73233018F485510C949B
:102DC0003A15892F8E77803311F40C94BC15863414
:102DD00011F40C940C16883411F40C945D160895BB
:102DE0002EB1342F309523233EB1432B3FB7F894B7
:102DF000FC01680F791FE617F70789F0819198E0C9
:102E00004EB9000000C087FF2EB9880F000000C037
:102E100000C000C02EB900C09A9591F7ECCF3FBF1B
:102E200008952DB1242B2DB99B01220F331F620F62
:102E3000731F0E94F01687EC90E00197F1F700C035
:102E40000000089544E00C9411179093870180933B
:102E500086010895E0918601F0918701309721F075
:102E60000190F081E02D099480E00895EF92FF92A7
:102E70000F931F93CF93DF93E0918601F091870129
:102E80003097B1F18C010280F381E02D099580919A
:102E9000F80182FF2DC080FF04C081ED96E00E9402
:102EA000E806E80110E28BECE82E86E0F82E80912F
:102EB000F80180FF0BC088811F928F93FF92EF92E1
:102EC0000E9481070F900F900F900F901150219644
:102ED0001111EDCF8091F80180FF0AC089EC96E0D6
:102EE000DF91CF911F910F91FF90EF900C94E80626
:102EF000DF91CF911F910F91FF90EF900895209156
:102F00008401309185018217930771F090938501B8
:102F100080938401E0918601F0918701309721F040
:102F20000680F781E02D0994089520918201309167
:102F300083018217930771F090938301809382013C
:102F4000E0918601F0918701309721F00084F185AE
:102F5000E02D0994089508950C94AB1781E008952D
:102F60000E94462485B7806885BF85B7806885BF85
:102F70000E94970D0E94DB240E94AD260C9425131D
:102F8000CF93C82F8091F80182FF1EC080FF04C03C
:102F90008AEE96E00E94E8068091F80180FF0CC05E
:102FA0001F92CF9385EE96E09F938F930E948107A7
:102FB0000F900F900F900F908091F80180FF04C048
:102FC00083EE96E00E94E8068C2FCF910C941008B7
:102FD0004F925F927F928F929F92AF92BF92CF92C9
:102FE000DF92EF92FF920F931F93CF93DF93CDB7B2
:102FF000DEB72A970FB6F894DEBF0FBECDBF0E9492
:10300000DF0D0E94AE17811111C08FEF89838A8373
:103010001B820E944F248160782F9D838C8349817D
:103020005A816B818D810E94A41857C099E8C92EDE
:1030300091E0D92E00E010E0AA24A394B12C702EC8
:10304000802F0E94930E4C01F601419051906F0128
:10305000482659264114510431F40F5F1F4F0530A3
:10306000110569F7D2CF8091F80181FD0E949C0E75
:1030700020E030E07501022E02C0EE0CFF1C0A9425
:10308000E2F7C70184219521892B09F12E837F82E4
:103090008E209F2091E0892809F490E098870E9473
:1030A0004F248160782F9A8789874E815F81688558
:1030B0008A850E94A418000F111FF801E757FE4FE0
:1030C00080819181E826F926F182E08206C02F5F97
:1030D0003F4F2E30310571F6C0CF109188010E940C
:1030E0002A171817D9F00E942A17809388012A9668
:1030F0000FB6F894DEBF0FBECDBFDF91CF911F9109
:103100000F91FF90EF90DF90CF90BF90AF909F9086
:103110008F907F905F904F900C94C0172A960FB6B7
:10312000F894DEBF0FBECDBFDF91CF911F910F91FD
:10313000FF90EF90DF90CF90BF90AF909F908F90D7
:103140007F905F904F900895CF93DF93CDB7DEB718
:103150002B970FB6F894DEBF0FBECDBF4F835887B5
:1031600069877A878B87DE01119686E0FD011192CF
:103170008A95E9F785E0FE01379601900D928A95D0
:10318000E1F749815A816B817C818D819E810E940A
:103190008D1F2B960FB6F894DEBF0FBECDBFDF910B
:1031A000CF910895FC01808191810E94FA210895B8
:1031B000CF93DF931F92CDB7DEB7882309F403C105
:1031C000682F8238C1F40E942A1781FDFCC069E390
:1031D00080910201909103010E94A7230E943A224C
:1031E0002FEF81EE94E0215080409040E1F700C045
:1031F000000069E319C0833811F50E942A1780FD89
:10320000E2C063E580910201909103010E94A7232F
:103210000E943A222FEF81EE94E0215080409040AE
:10322000E1F700C0000063E5809102019091030185
:103230000E94B2230F90DF91CF910C943A228438F0
:10324000C1F40E942A1782FDBEC067E4809102018A
:10325000909103010E94A7230E943A222FEF81EE52
:1032600094E0215080409040E1F700C0000067E406
:10327000DBCF8CEF860F813A70F4862F69830E9432
:103280005E26698181119FC08091020190910301A6
:103290000E94A723CFCF80E2860F883048F4677062
:1032A00081E001C0880F6A95EAF70E947022C2CFC0
:1032B0008BE5860F833088F4653A29F0663A31F061
:1032C00083E890E005C081E890E002C082E890E0E9
:1032D0000F90DF91CF910C947F1788E5860F853191
:1032E00008F071C0683A61F1693A69F16A3A71F1BE
:1032F0006B3A79F16C3A81F16B3B89F16C3B91F15E
:103300006D3A99F1603BA1F16E3AA9F16F3AB1F1D2
:10331000613BB9F1623BC1F1633BC9F1643BD1F15F
:10332000653BD9F1663BE1F1673BE9F1683BF1F1BF
:10333000693BF9F16A3B09F43FC080E090E03EC090
:1033400082EE90E03BC089EE90E038C08AEE90E0DB
:1033500035C085EB90E032C086EB90E02FC083EB68
:1033600090E02CC084EB90E029C087EB90E026C071
:103370008CEC90E023C08DEC90E020C083E891E0DD
:103380001DC08AE891E01AC082E991E017C084E983
:1033900091E014C081E292E011C083E292E00EC09D
:1033A00084E292E00BC085E292E008C086E292E0FF
:1033B00005C087E292E002C08AE292E00F90DF91BE
:1033C000CF910C9495170F90DF91CF91089588239A
:1033D00009F45BC0682F823879F40E942A1781FFB4
:1033E00054C069E380910201909103010E94A723D8
:1033F0000E943A2269E310C08338B1F40E942A1770
:1034000080FF43C063E580910201909103010E9417
:10341000A7230E943A2263E5809102019091030163
:103420000E94B2230C943A22843879F40E942A171D
:1034300082FF2BC067E480910201909103010E94FA
:10344000A7230E943A2267E4E7CF8CEF860F813AE8
:1034500018F380E2860F883048F4677081E001C07D
:10346000880F6A95EAF70E947622DCCF8BE5860FFB
:10347000833020F480E090E00C947F17685A653127
:1034800020F480E090E00C9495170895882321F0B3
:103490000E9470220C943A220895882321F00E9401
:1034A00076220C943A2208954F925F926F927F9207
:1034B000BF92CF92DF92EF92FF920F931F93CF9321
:1034C000DF937C01D62FC72FFC01058102950F7079
:1034D000128111110E948D220E943322882379F0DB
:1034E000112369F080E28D0F883048F082E00E945D
:1034F0001C220E94332291E0B82EB92601C0B12CC3
:10350000CC2EC2948FE0C822D12CF601E859FF4F8F
:103510000C9421338C2F807FCF70882311F0C295BB
:10352000C07F112399F0CC2309F48EC180E28D0F66
:10353000883010F0D11104C08C2F0E94702203C07B
:103540008C2F0E9480220E943A227EC18D2F0E94E1
:10355000E719CC2309F4C1C180E28D0F883010F047
:10356000D11104C08C2F0E94762203C08C2F0E94A0
:1035700086220E943A22B1C18C2F807FCF70803288
:1035800011F0C295C07FDD2319F0D130C9F022C0FF
:10359000112371F0002341F0013031F40E94A62282
:1035A0008C2B0E94A02299C10E94A6228C2B1DC0A8
:1035B000002319F0013009F490C10E94A3221AC01F
:1035C000112321F0063008F088C10EC0053008F044
:1035D00084C110C0112361F0002331F0F70185810F
:1035E00080FF32C18F7085838C2F0E94461A75C16F
:1035F00001113BC18C2FE6C08C2F86958695837078
:1036000090E0009719F0019761F067C1112321F054
:103610008D2F9C2F937002C080E090E00E947F1756
:103620006CC1112321F08D2F9C2F937002C080E07C
:1036300090E00E94951761C18C2F837009F050C0F3
:10364000111157C18D2F829586958770880F880F2D
:103650009D2F9F70492E512C612C712C082E04C077
:10366000440C551C661C771C0A94D2F7D4FF14C076
:103670000FE010E020E030E0B901A80104C0440FE1
:10368000551F661F771F8A95D2F7CB01BA01609547
:1036900070958095909503C060E070E0CB01C69571
:1036A000C695C370D0E0C230D10561F0C330D105FA
:1036B00081F06429752986299729219771F00E9444
:1036C000D02017C164297529862997290E94E220F4
:1036D00010C10E94D020C301B2010E94BE2009C1C6
:1036E000112319F08C2F817001C08695882309F46D
:1036F00000C18D2F829586958770880F880F9D2F2A
:103700009F70492E512C612C712C082E04C0440C42
:10371000551C661C771C0A94D2F7D4FF14C00FE026
:1037200010E020E030E0B901A80104C0440F551FAB
:10373000661F771F8A95D2F7CB01BA016095709505
:103740008095909503C060E070E0CB01C695C6956A
:10375000C3704C2F50E04230510569F043305105A1
:1037600089F064297529862997294130510571F01E
:103770000E949621BEC064297529862997290E9436
:10378000A821B7C00E949621C301B2010E948421E2
:10379000B0C08D2F90E0FC01E05EF109E531F1054C
:1037A00008F04EC0E858FF4F0C942133DF708C2F87
:1037B0008F71112321F00E941D218D2F16CF0E94A1
:1037C0003E218D2F0E944D1A88C0112341F00530F3
:1037D00008F083C08C2F8F710E9463217EC0063059
:1037E00008F07BC0F7CF112339F08C2F8F710E9426
:1037F0001D2173C01123C9F38C2F8F710E943E21AC
:103800006CC0112329F08C2F8F710E94082165C094
:103810000E94032162C0112349F0CF718C2F0E94B6
:103820001D2163E08C2F0E94132257C081E00E946B
:103830001C22023008F451C082E00E941C224DC0BC
:10384000112331F0002389F28D2F0E94D81845C032
:10385000002391F2D93349F45FEF67EE73E05150E2
:1038600060407040E1F700C000008D2F0E94E71912
:1038700034C04C2F4F706D2FC7010E94AC0A0E94BC
:1038800031203BC0111139C0CF70D0E0C230D1051A
:1038900099F03CF4209769F02197F9F40E94FA26F8
:1038A0002CC0C430D10571F054F02597B1F480E0FC
:1038B0000AC00E94CA2621C00E9429271EC00E9459
:1038C00056271BC084E00E948C2717C04C2F4F70D6
:1038D0006D2FC7010E94AF0A10C088E0C816D1043E
:1038E00041F05CF0EAE0CE1AD108F2E0CF16D10444
:1038F00020F40E942A170E941008BB20F1F00E94B9
:103900000F2280FD1AC0F70112820E9409220E9434
:103910001D21C7010E94AB1C0E940922DF91CF919B
:103920001F910F91FF90EF90DF90CF90BF907F900D
:103930006F905F904F900C943E21DF91CF911F913B
:103940000F91FF90EF90DF90CF90BF907F906F909E
:103950005F904F9008950F931F93CF93DF93EC01E7
:10396000888199812B813C81232BB9F09F3F11F4F1
:103970008F3F99F0CE010E942208882371F0688160
:1039800079818A810E9405228C010E94BA210E94BD
:10399000BB20B801CE010E94541ADF91CF911F9134
:1039A0000F9108950E948D220E949D228091020114
:1039B000909103010E94BD230E943A2280E090E092
:1039C0000E947F1780E090E00C9495170E947D2262
:1039D0000C94D21C0E94FA21E92FE295EF70F0E0DE
:1039E0003297EE30F105B0F4E357FF4F0C942133DA
:1039F000803F91F018F4803E68F40EC0843F51F48B
:103A00000BC0803E48F0813F29F406C093FB882715
:103A100080F9089580E0089581E00895CF93DF93C1
:103A200000D000D01F92CDB7DEB70F900F900F904F
:103A30000F900F90DF91CF910895CF93DF9300D037
:103A400000D000D0CDB7DEB726960FB6F894DEBF13
:103A50000FBECDBFDF91CF9108951F93CF93DF931A
:103A6000C091930116E080919401C81799F0D0E0BD
:103A70001C9FF0011D9FF00D1124EB56FE4F40815D
:103A8000518162817381848195810E941D1D2196DF
:103A9000C770E9CFDF91CF911F9108954091C50183
:103AA0005091C6016091C7017091C8018091C90110
:103AB0009091CA010C941D1D8091CA0182958F704E
:103AC00009F054C08091C701882309F44FC0809148
:103AD0009301A09194016091C5017091C60140913C
:103AE000C8015091C901B6E08A1709F43FC090E0BF
:103AF00041155105C1F17F3F11F46F3FA1F1B89F0E
:103B0000F001B99FF00D1124EB56FE4F2181721385
:103B10002AC02081621327C02281211124C0238161
:103B200034812417350710F421503109241B350B3B
:103B3000283C3105C0F42091CA012F7020612093E8
:103B4000CA0126E0289FF001299FF00D1124E656B6
:103B5000FE4F80818F708061808385EC91E00E94B0
:103B6000AB1C0C942D1D01968770BECF0895CF928B
:103B7000DF92EF92FF920F931F93CF93DF93CDB716
:103B8000DEB762970FB6F894DEBF0FBECDBF8C01D3
:103B900085E0F801DE011D9601900D928A95E1F70E
:103BA000D8014C9111965C91119712966C911297D5
:103BB0001396CD90DC9014973091C5017091C60199
:103BC0008091C8019091C901009709F46BC17F3FB2
:103BD00019F43F3F09F466C1E090C701EE2009F4F3
:103BE000C0C02091CA01C816D90628F0F601E81B0A
:103BF000F90BCF0104C0809590958C0D9D1DFF247D
:103C0000F394883C910578F0F12C207F09F0C6C030
:103C10007C2DD98AC88A89890E940E1D85EC91E085
:103C20000E94AB1CB1C0822F807F09F046C0751383
:103C300014C0341312C0611110C02F702061209382
:103C4000CA010E944E1D85EC91E00E94AB1C809140
:103C5000CA01D80115968C932EC0CD2819F15F3F6B
:103C600011F44F3FF9F0F62E61111CC080919301C1
:103C70002091940136E0821709F45AC090E0389FF1
:103C8000F001399FF00D1124EB56FE4F718157134F
:103C900006C07081471303C07281711103C0019681
:103CA0008770E9CFF62E662309F427C18091CA01F7
:103CB00081608093CA01F12C20C1751308C03413B0
:103CC00006C0611104C08091CA01D801C3C04D87EC
:103CD0005E878D859E856A8B0E94EA1C6A8988238F
:103CE000E1F16623D1F12091CA01822F82958F7074
:103CF00090E0029774F08091C5019091C601988779
:103D00008F831986DB86CA862C87CE0107960E9490
:103D1000AB1C86E0F801A5ECB1E001900D928A950C
:103D2000E1F70E945C1D0E944E1DFF24F394E5C044
:103D30004D875E878D859E850E94FA21292F2295C9
:103D40002F7030E0223031050CF0CBC09F7009F0AD
:103D5000C5C0805E883008F4D0C0C8010E94AB1C8A
:103D6000E4CFC816D90608F453C0F601E81BF90BD6
:103D7000CF01883C910508F450C0F12C7C2DD98AE4
:103D8000C88A89890E940E1DE5ECF1E086E0DF011A
:103D90001D928A95E9F70E944E1DAFC0751314C09D
:103DA000341312C0611110C08091CA01F8018583DB
:103DB000C8010E94AB1C86E0E5ECF1E0DF011D923A
:103DC0008A95E9F7FE2C99C04D875E878D859E8583
:103DD0006A8B0E94EA1C6A89882309F4BECF662395
:103DE00009F4BBCF2091CA01822F82958F7090E099
:103DF00002970CF48ECF8091C5019091C6019A83F1
:103E000089831B82DD82CC822E83CE0101967FCFF7
:103E1000809590958C0D9D1DACCFF62E662309F4F0
:103E20009CCF75132EC034132CC02091CA0120FDE5
:103E30001FC0822F82958F70D9F0D80115962C93D0
:103E400015978F3049F08F5F982F9295907F822F32
:103E50008F70892B15968C93C8010E94AB1C86E04D
:103E6000F801A5ECB1E001900D928A95E1F793CFAE
:103E700086E0F801A5ECB1E001900D928A95E1F79A
:103E80003CC04D875E878D859E850E94EA1C81110E
:103E900040CF8091CA0181608093CA01C8010E940D
:103EA000AB1C2BC0662309F458CF4D875E878D85E8
:103EB0009E850E94EA1CF82E882309F44ECF86E0E6
:103EC000F801A5ECB1E001900D928A95E1F785EC3F
:103ED00091E00E94D2180E945C1D5DCF811139CF04
:103EE0000CC0243031050CF038CF9F7009F431CF6D
:103EF000F8019581907F09F02CCF8F2D62960FB637
:103F0000F894DEBF0FBECDBFDF91CF911F910F910F
:103F1000FF90EF90DF90CF9008951F93CF93DF93A2
:103F2000CDB7DEB72C970FB6F894DEBF0FBECDBF6E
:103F30004F83588769877A878B879C87CE0107963E
:103F40000E94B71D882369F08F8198852A853B855B
:103F5000232BF1F19F3F09F063C08F3F09F060C050
:103F600037C086E0FE013796DE01119601900D9272
:103F70008A95E1F76F817885EA85FB85309741F175
:103F80007F3F11F46F3F21F12091940130E0C9018E
:103F90000196877099274091930150E08417950707
:103FA00009F447C069837A83FD83EC8396E0929F8E
:103FB000D001939FB00D1124AB56BE4FFE01319638
:103FC00001900D929A95E1F7809394010E942D1D26
:103FD00016E080919301909194018917C1F1189F87
:103FE000C00111248B569E4F0E94B71D882379F182
:103FF000E09193011E9FF0011124EB56FE4F40818A
:10400000518162817381848195810E941D1D8091FF
:10401000930190E001968770992780939301D9CFFF
:104020004F81588569857A858B859C850E941D1DE9
:10403000CFCF0E94E61C1092940110929301E5EC00
:10404000F1E086E0DF011D928A95E9F7C1CF2C9659
:104050000FB6F894DEBF0FBECDBFDF91CF911F9199
:104060000895EF92FF920F931F93CF93DF938C01EC
:10407000892B09F46CC0F12CEE24E394E80121961D
:10408000F8018491843740F4843008F051C08130C5
:1040900081F0823019F15BC0853709F444C0A8F182
:1040A0009CE7980F903708F052C08F770E94E7196D
:1040B00041C00E5F1F4FFE01C49180E28C0F88301B
:1040C00048F4C7708E2D01C0880FCA95EAF70E9488
:1040D000902214C08C2F0E94D8182DC00E5F1F4F45
:1040E000FE01C49180E28C0F883058F4C7708E2D89
:1040F00001C0880FCA95EAF70E9496220E943A22D0
:104100001AC08C2F0E94E71916C00E5F1F4FFE01C8
:10411000C491CC2381F08FE99FE00197F1F700C0B3
:104120000000C150F6CF0E5F1F4FFE01F49003C098
:104130000E94D8188E018F2D882309F49FCFEFE9B4
:10414000FFE03197F1F700C000008150F5CFDF911B
:10415000CF911F910F91FF90EF90089508950E94C5
:10416000AE206093CF017093D0018093D1019093E2
:10417000D2010C94D21C08950C94AF200F931F937E
:104180000091CF011091D0012091D1013091D20145
:10419000602B712B822B932B1F910F910C94AF20CE
:1041A0000F931F930091CF011091D0012091D10165
:1041B0003091D20160237123822393231F910F91A9
:1041C0000C94AF200F931F930091CF011091D00159
:1041D0002091D1013091D201602771278227932746
:1041E0001F910F910C94AF2008950C94F4200E941D
:1041F000F5206093CB017093CC018093CD01909317
:10420000CE010C94D21C60E070E0CB010C94F7203E
:104210000F931F9341E050E060E070E08A019B0142
:1042200004C0000F111F221F331F8A95D2F7C90146
:10423000B8011F910F910C94F7200F931F9341E049
:1042400050E060E070E004C0440F551F661F771F08
:104250008A95D2F78091CB019091CC01A091CD01AC
:10426000B091CE018A019B01082B192B2A2B3B2BE5
:10427000C901B8011F910F910C94F7200F931F9360
:1042800041E050E060E070E004C0440F551F661F3D
:10429000771F8A95D2F740955095609570958091DB
:1042A000CB019091CC01A091CD01B091CE018A01BA
:1042B0009B01082319232A233B23C901B8011F911D
:1042C0000F910C94F7200F931F9341E050E060E0B2
:1042D00070E004C0440F551F661F771F8A95D2F700
:1042E0008091CB019091CC01A091CD01B091CE01F4
:1042F0008A019B01082719272A273B27C901B801F2
:104300001F910F910C94F7200F931F930091CB01F5
:104310001091CC012091CD013091CE01602B712BF9
:10432000822B932B1F910F910C94F7200F931F93C7
:104330000091CB011091CC012091CD013091CE01A3
:1043400060237123822393231F910F910C94F720F4
:104350000F931F930091CB011091CC012091CD01BF
:104360003091CE0160277127822793271F910F91EB
:104370000C94F7200895CF92DF92EF92FF920F9363
:104380001F93CF93DF938C01C090CF01D090D001C9
:10439000E090D101F090D2018091CB019091CC01BD
:1043A000A091CD01B091CE01C82AD92AEA2AFB2AD0
:1043B000CFE1D0E0D701C6010C2E04C0B695A79579
:1043C000979587950A94D2F780FF06C0B8018C2F85
:1043D0000E94CA0A019721F4219760F780E001C08A
:1043E0008C2FDF91CF911F910F91FF90EF90DF9075
:1043F000CF900895CF93DF93EC010E94BB21BE01C3
:104400000E94CA0ADF91CF910895CB010E94FA2140
:1044100008958091D301859585958595089580911E
:10442000D3018770089598E0899F90011124262B6D
:104430002093D3010C941D212091D30180958223D8
:104440008093D301982F977069F430E0482F082E9D
:10445000000C550B2417350729F085958595859512
:104460000C943E2108959091D301977081E009F456
:1044700080E00895E0910201F09103018091F7013D
:104480008083E0910201F091030190818091F60117
:10449000892B8083E0910201F0910301908180914A
:1044A000F501892B80838091D401882381F0E091EC
:1044B0000201F09103019081892B80838091020198
:1044C000909103010E94292381111092D4018091BF
:1044D0000201909103010C9436178091F701089521
:1044E0009091F701892B8093F70108958095909121
:1044F000F70189238093F70108951092F701089539
:104500009091F601892B8093F60108958095909102
:10451000F60189238093F60108951092F60108951B
:104520009091F501892B8093F501089580959091E4
:10453000F50189238093F50108951092F5010895FE
:104540008093D40108951092D40108958091D401EC
:104550000895909337018093360108958295982F9E
:104560009C7C392F36953695282F237344E0249F61
:10457000C0011124932F982B292F2A7A2695892F51
:104580008575880F822B08951F93CF93DF931F9219
:10459000CDB7DEB799830E94AE22182F9981892F5B
:1045A0000E94AE22212F30E0322F2227A901482B72
:1045B000CA010F90DF91CF911F9108956DEE7EEFAC
:1045C00080E090E00E94733360E082E090E00E941F
:1045D000553360E083E090E00E94553360E084E072
:1045E00090E00E94553360E085E090E00E945533F2
:1045F00060E086E090E00E94553340E050E0BA0170
:1046000088E090E00C94673380E090E00E944F33A4
:1046100021E08D3E9E4F09F020E0822F089582E038
:1046200090E00C94413383E090E00C94413384E0BB
:1046300090E00C944133682F84E090E00C94553363
:1046400086E090E00C944133682F86E090E00C9473
:104650005533FC0131969C01205E3F4F80E09191E3
:1046600091118F5FE217F307D1F708959C01FC01C8
:1046700032969FEF80E04191461789F09F3F19F4F1
:10468000411101C0982F8F5F8E31A9F79F3F39F0FC
:10469000F901E90FF11D97FDFA95628308950895D8
:1046A000FC01329680962081261301C0108231963B
:1046B000E817F907C1F70895262F26952695269520
:1046C0002F3170F4FC01E20FF11D677021E030E042
:1046D00001C0220F6A95EAF78181282B2183089572
:1046E0008091F80180FF0CC01F926F938BE197E0DF
:1046F0009F938F930E9481070F900F900F900F90C0
:104700000895262F2695269526952F3178F4FC01BD
:10471000E20FF11D677021E030E001C0220F6A95C1
:10472000EAF7209581812823218308958091F8015B
:1047300080FF0CC01F926F938DEF96E09F938F9335
:104740000E9481070F900F900F900F900895209175
:104750000E01222329F02091420227FD0C945C23B4
:104760000C94362320910E01222329F0209142023D
:1047700027FD0C9481230C945023FC0131968096E4
:104780001192E817F907E1F7089508950C94C523ED
:1047900080914902843061F11092F90120E488E1AE
:1047A00090E00FB6F894A895809360000FBE209318
:1047B000600080E00E94A00780E00E9410080E9434
:1047C000C62383B7817F846083BF83B7816083BF43
:1047D0007894889583B78E7F83BF0FB6F894A89599
:1047E00080916000886180936000109260000FBE2D
:1047F000089508950895CF930E94F9230E94DF0D34
:104800000E94FA23C0E08C2F0E94930E892B29F47A
:10481000CF5FC530C1F780E001C081E0CF9108953E
:1048200008950C9410240E94E61C0E94AD260E945C
:104830002A170E9410080C9411241F920F920FB691
:104840000F9211248F939F93AF93BF938091F9019F
:10485000811113C080913E0290913F02A0914002CD
:10486000B09141024196A11DB11D80933E029093EB
:104870003F02A0934002B0934102BF91AF919F913C
:104880008F910F900FBE0F901F90189582E084BDFE
:1048900093E095BD9AEF97BD80936E0008952FB772
:1048A000F89480913E0290913F02A0914002B09115
:1048B00041022FBF08952FB7F89460913E02709186
:1048C0003F0280914002909141022FBF0895CF9204
:1048D000DF92EF92FF920F931F932FB7F8944091BE
:1048E0003E0250913F0260914002709141022FBF01
:1048F0006A017B01EE24FF248C0120E030E0C01629
:10490000D106E206F30610F4415051099A01281B22
:10491000390BC9011F910F91FF90EF90DF90CF905D
:10492000089578941F920F920FB60F9211248F93CF
:104930009F93AF93BF9380913E0290913F02A091CD
:104940004002B09141020196A11DB11D80933E022B
:1049500090933F02A0934002B0934102BF91AF9168
:104960009F918F910F900FBE0F901F90189581E02F
:104970008093E00080E28093D8001092C9008FE11C
:104980009EE40197F1F700C0000087E090EBDC01A6
:104990008093520290935302A0935402B093550215
:1049A0009CE088E10FB6F894A895809360000FBE54
:1049B00090936000FFCF0E940423811102C00E94E7
:1049C000DE220E940F238093F8010E94172390E0BB
:1049D00090934302809342020E941323682F70E059
:1049E00080E090E00C94BC20CF93C82F1F928F934F
:1049F0008FE397E09F938F930E94810781E090E07F
:104A0000A0E0B0E0BC01CD0104C0660F771F881F95
:104A1000991FCA95D2F70E94BC200F900F900F905B
:104A20000F90CF910C94E61CCF938732A8F58E316E
:104A300008F032C1803109F49FC0F8F4873009F4DE
:104A400065C0A8F4863009F02DC18091F801817FFE
:104A50008E7F8093F8018EEC98E00E94E80683E256
:104A60009BE00E94E80681E08093FA014DC08B3004
:104A7000F1F18E3009F46CC015C1863109F4B0C073
:104A800020F4813109F4F0C00DC1893109F491C0DD
:104A90008B3109F449C006C1883349F150F4893299
:104AA00009F4FCC0853309F4F9C0873209F4F6C073
:104AB000F9C0833409F4F2C028F48A3308F4F2C050
:104AC0008953EDC0883409F0EDC00E94E61C87E0F0
:104AD0009BE00E94E8062FEF83ED90E32150804099
:104AE0009040E1F700C000000E94B7240DC089EE9D
:104AF00098E05CC08EEE9AE00E94E8068091F80192
:104B0000897F877F8093F801C1E0D1C08091F8014F
:104B1000C82FC095C170C0FB80F98093F801CC23E9
:104B200049F38BEF9AE0B2C09091F80191FBCC274A
:104B3000C0F981E0C827892FC0FB81F98093F80173
:104B4000CC2319F081EE9AE027C083ED9AE02EC0C5
:104B50009091F80192FBCC27C0F981E0C827892FFA
:104B6000C0FB82F98093F801CC2319F084EC9AE021
:104B700013C084EB9AE01AC09091F80193FBCC2704
:104B8000C0F981E0C827892FC0FB83F98093F80121
:104B9000CC2351F088EA9AE00E94E8068091F8015F
:104BA00081608093F80183C08BE99AE00E94E80657
:104BB000ABCF8FEB98E00E94E8068FE798E00E9469
:104BC000E8068DE498E00E94E80685E298E00E94FD
:104BD000E80683EF97E00E94E80685EC97E0E6CFD1
:104BE00087EB97E00E94E8060E942A171F928F9396
:104BF0008DE997E09F938F930E94810780910E012A
:104C00001F928F9386E897E09F938F930E9481076E
:104C100080911F021F928F9383E797E09F938F935A
:104C20000E9481078091420287FB882780F91F92AA
:104C30008F938BE597E09F938F930E9481070E944B
:104C40005B249F938F937F936F9384E497E09F936C
:104C50008F930E9481078DB79EB746960FB6F89442
:104C60009EBF0FBE8DBF50CF0E94E61C90914202A6
:104C700097FBCC27C0F981E0C827892FC0FB87F9B3
:104C800080934202CC2329F081E99AE00E94E80651
:104C90000EC086E89AE08ACF8D5101C080E00E9464
:104CA000F42432CF84E89AE00E94E806C0E08C2F1A
:104CB000CF91089580E0089580E00895CF93C82FA4
:104CC0008091FA01882319F0813049F03EC0E091CB
:104CD0000201F091030180818232C9F507C0E091A1
:104CE0000201F09103018081823261F48C2F0E94D5
:104CF0005A26811104C08C2F0E94142524C081E003
:104D000090E021C08C2F0E945C2681111BC0C43111
:104D100089F018F4CB3029F010C0C93259F0C833EB
:104D200061F48EEC98E00E94E8068BE397E00E9425
:104D3000E80608C01092FA010CC089E397E00E94CF
:104D4000E80607C081E0817006C01092FA0180E099
:104D500002C080E0F8CFCF9108950E940423811112
:104D600002C00E94DE220E94202380934402282F4A
:104D7000269530E02530310524F0817088608093DD
:104D800044028091440280FF02C0869501C080E009
:104D90000C94A00720914402822F8695482F50E062
:104DA0004430510544F48F5F982F990F822F817002
:104DB000892B809344028091440281608093440255
:104DC0000E9424238091F80180FF0FC0809144024B
:104DD00086951F928F9389E69BE09F938F930E9405
:104DE00081070F900F900F900F908091440286954D
:104DF0000C94A00780914402982F969591F09158B9
:104E0000990F8170892B809344028E7F91E009F481
:104E100090E08091440290FB80F9809344020E94CC
:104E200024238091F80180FF0FC080914402869571
:104E30001F928F9381E59BE09F938F930E94810740
:104E40000F900F900F900F908091440286950C94D4
:104E5000A00780914402982F909590FB80F9809351
:104E60004402813019F483E080934402809144022B
:104E70000E9424238091F80180FF0FC0809144029A
:104E800081701F928F938BE39BE09F938F930E947F
:104E900081070F900F900F900F908091440280FF38
:104EA00002C0869501C080E00C94A0079091440256
:104EB000892F86958F5F8F779170853028F4880FC2
:104EC000892B8093440202C0909344028091440253
:104ED0008E7F91E009F490E08091440290FB80F98C
:104EE000809344020E9424238091F80180FF0FC028
:104EF0008091440286951F928F9387E29BE09F9357
:104F00008F930E9481070F900F900F900F908091C8
:104F1000440286950C94A007853008F084E0880F41
:104F2000909144029170892B809344028E7F91E08E
:104F300009F490E08091440290FB80F98093440250
:104F40000E9424238091440286950C94A0078091AE
:104F50001E02089508959FB7F8941092FD019FBF17
:104F600090914902943009F057C09091E9009F70E8
:104F70003091EC00232F217030FD20E8922B23E0AC
:104F80002093E9002091EB0020FF43C02091EE0028
:104F900027FF3FC02091FB01222321F02091E80050
:104FA00025FF37C01092FB0126E03091E80035FD67
:104FB00015C030914902343061F53091EB0035FD78
:104FC00028C0215021F481E08093FB0122C0EFE949
:104FD000FFE03197F1F700C00000E7CF8093F100C8
:104FE0008091E80085FD0AC08091E80080FFFCCF39
:104FF0008091E8008E778093E80006C08FB7F89420
:1050000021E02093FD018FBF9F709093E90080E025
:1050100008959F709093E9008FEF08950F931F9369
:10502000CF93DF9300D01F92CDB7DEB78C010E94E3
:10503000BA2A823011F0843021F583E089831B8302
:105040000A8382E08093E9008FEF9091E80081501D
:1050500095FD06C095ED9A95F1F700008111F5CF09
:105060008091E80085FF0DC040E050E063E070E013
:10507000CE0101960E94D72A8091E8008E77809316
:10508000E8000F900F900F90DF91CF911F910F913B
:105090000895CF93DF9300D01F92CDB7DEB7209154
:1050A0004902243029F522E02983805891099B8305
:1050B0008A832093E9008FEF9091E800815095FD5D
:1050C00006C095ED9A95F1F700008111F5CF80911A
:1050D000E80085FF0DC040E050E063E070E0CE01E5
:1050E00001960E94D72A8091E8008E778093E8008D
:1050F0000F900F900F90DF91CF910895CF93DF9392
:10510000EC010E94BA2A823019F0843009F047C0BD
:1051100080910E018823E1F08091420287FF18C040
:1051200084E08093E9008FEF9091E800815095FD35
:1051300006C095E19A95F1F700008111F5CF8091B5
:10514000E80085FF2CC040E050E060E270E017C04E
:1051500081E08093E9008FEF9091E800815095FD08
:1051600006C095ED9A95F1F700008111F5CF809179
:10517000E80085FF14C040E050E068E070E0CE0138
:105180000E94D72A8091E8008E778093E80080E221
:10519000FE01AEEFB1E001900D928A95E1F7DF914B
:1051A000CF91089586EA9BE00E94E806809148022C
:1051B000811109C00E946C2C0E94C92C8091E200D0
:1051C00084608093E200089582EA9BE00E94E806F2
:1051D0001092480208958EE99BE00C94E8068AE953
:1051E0009BE00C94E80686E99BE00E94E8060C949C
:1051F00013242091FC012F5F822F62E30E94CB32A7
:10520000992319F02093FC0108951092FC018091DC
:10521000FD01882371F180914902843041F580912C
:10522000E9008F702091EC00922F917020FD90E8A2
:10523000892B93E09093E9009091EB0090FF14C0CC
:105240009091EE0097FF10C09091E80095FF03C089
:105250001092F100F9CF9091E80090FF05C0909175
:10526000E8009E779093E8008F708093E900109299
:10527000FD01089542E061EC81E00E94E62B42E0EE
:1052800061EC82E00E94E62B42E261EC83E00E9446
:10529000E62B42E261EC84E00C94E62B80914B0219
:1052A000833009F455C030F4813071F0823009F454
:1052B0008EC008958A3009F47AC08B3009F460C03A
:1052C000893009F09CC020C080914A02813A09F0DF
:1052D00096C08091E800877F8093E80080914E021D
:1052E00090914F02892B21F460E28EEF91E003C090
:1052F00060E080E090E070E00E94222B8091E80066
:105300008B778093E800089580914A02813209F0FA
:1053100076C080914E0290914F02009719F003974A
:1053200009F06DC08091E800877F8093E80080914C
:10533000E80082FD05C0809149028111F8CF5FC06D
:105340008091F10080931E028091E8008B7753C01A
:1053500080914A02813A09F052C080914E029091A8
:105360004F02892B09F04BC08091E800877F809322
:10537000E8008091E80080FFFCCF80910E0136C0EC
:1053800080914A028132D9F580914E0290914F026C
:10539000892BA9F58091E800877F8093E8000E941F
:1053A0001B2C80914C0280930E010C94E61C809182
:1053B0004A02813221F58091E800877F8093E800DE
:1053C0000E941B2C80914D0280931F0208958091B2
:1053D0004A02813AA1F48091E800877F8093E80037
:1053E0008091E80080FFFCCF80911F028093F10044
:1053F0008091E8008E778093E8000C941B2C089530
:1054000084B7877F84BF0FB6F894A8958091600019
:10541000886180936000109260000FBE80E88093E6
:105420006100109261000E94AC170E946C2C0E94D7
:10543000C92C8091E20084608093E2008BEA97E2BD
:105440000E94A92278940E94572F0E94B01784E0EE
:1054500091E00E94251785E89BE00E94E806809174
:105460004902853089F481E89BE00E94E8060E94A9
:10547000C82380914702882391F30E94FB2388234D
:1054800071F30E94C12AEBCF0E94E8170E94B01668
:10549000E6CF0C944B2A292F332723303105C9F04E
:1054A00064F42130310581F02230310509F049C022
:1054B00084E790E02EEC3BE048C02132310521F139
:1054C0002232310571F13DC082E190E022E43CE0FE
:1054D0003CC099278130910571F02CF4892B89F516
:1054E000EAECFBE00DC08230910541F0039749F5ED
:1054F000EAEAFBE005C0ECEBFBE002C0E0EBFBE01E
:10550000849190E09F0121C064307105D0F4660F52
:10551000771FFB01E25DFE4F2081318189E090E041
:1055200014C06430710568F4FB01EE0FFF1FEA5DE3
:10553000FE4F20813181FB01EE5DFE4F808190E0C6
:1055400004C080E090E020E030E0FA013183208365
:1055500008950895CF93C82F0E94A92AC0932002CE
:10556000CF91089580914902843011F081E008952F
:1055700082E0089580912002811102C00C94B22A29
:10558000089580E189BD82E189BD09B400FEFDCFA7
:105590008091D8008F7D8093D8008091E000826058
:1055A0008093E0008091E00081FDFCCF0895CF92D0
:1055B000DF92EF92FF920F931F93CF93DF93EC0153
:1055C0008B016A010E943A2C811133C0C114D104AD
:1055D00039F0F60180819181081B190BC80FD91F82
:1055E000E12CF12C0115110519F18091E80085FDE0
:1055F00016C08091E8008E778093E800C114D10432
:1056000049F0F60180819181E80EF91EF182E08275
:1056100085E00FC00E943A2C882321F30AC08991AB
:105620008093F10001501109FFEFEF1AFF0ADACF62
:1056300080E0DF91CF911F910F91FF90EF90DF906D
:10564000CF900895209150023091510226173707CC
:1056500048F06115710539F42091E8002E77209308
:10566000E80001C0B90140E061157105A9F1209180
:105670004902222309F443C0253009F442C0209195
:10568000E80023FD40C02091E80022FD32C02091B7
:10569000E80020FFE9CF4091F3002091F20030E0D4
:1056A000342BFC01CF016115710559F0283031050B
:1056B00040F481918093F100615071092F5F3F4F59
:1056C000F1CF41E02830310509F040E02091E800B9
:1056D0002E772093E800C8CF4111C9CF0AC080912E
:1056E0004902882361F0853061F08091E80083FDF4
:1056F0000AC08091E80082FFF2CF80E0089582E046
:10570000089583E0089581E008952091500230913A
:1057100051022617370748F06115710539F42091B9
:10572000E8002E772093E80001C0B901FC0120E0D9
:105730006115710591F180914902882309F440C0F7
:10574000853009F43FC08091E80083FD3DC0809121
:10575000E80082FD2FC08091E80080FFE9CF209112
:10576000F3008091F20090E0922B6115710559F0E1
:105770008830910540F424912093F10031966150D6
:1057800071090196F2CF21E0089709F020E080919D
:10579000E8008E778093E800CBCF2111CCCF0AC0F0
:1057A00080914902882361F0853061F08091E800A2
:1057B00083FD0AC08091E80082FFF2CF80E0089567
:1057C00082E0089583E0089581E00895982F97304E
:1057D00058F59093E900981739F07091EC002091FA
:1057E000ED005091F00003C0242F762F50E021FFF0
:1057F00019C03091EB003E7F3093EB003091ED000B
:105800003D7F3093ED003091EB0031603093EB0041
:105810007093EC002093ED005093F0002091EE0087
:1058200027FF07C09F5FD3CF8F708093E90081E08F
:10583000089580E0089580914A0287FF11C0809109
:10584000E80082FD05C0809149028111F8CF11C0A6
:105850008091E8008B770BC080914902882349F042
:105860008091E80080FFF8CF8091E8008E778093E8
:10587000E80008952091E4003091E50095E640911C
:10588000EC00842F817040FF22C08091E80080FDF1
:105890001CC080914902882391F0853091F080915D
:1058A000EB0085FD10C04091E4005091E5004217E7
:1058B000530729F39A01915011F784E0089582E08B
:1058C000089583E0089581E0089580E0089540916F
:1058D000E80042FFDECF08950E94DA2C0E94E22CFD
:1058E000E0EEF0E0808181608083E8EDF0E080818F
:1058F0008F77808319BCA7EDB0E08C918E7F8C935D
:1059000080818F7E80831092480208950F931F93A9
:10591000CF93DF930E94DA2C0E94E22CC8EDD0E0F6
:1059200088818F77888388818068888388818F7D4C
:10593000888319BC109249021092450210924702C6
:105940001092460200EE10E0F80180818B7F808388
:1059500088818160888342E060E080E00E94E62BDD
:10596000E1EEF0E080818E7F8083E2EEF0E08081E6
:1059700081608083808188608083F80180818E7F50
:105980008083888180618883DF91CF911F910F91FF
:105990000895E8EDF0E080818F7E8083E7EDF0E010
:1059A00080818160808384E082BF81E080934802AF
:1059B0000C94862CE8EDF0E080818E7F808310923D
:1059C000E20008951092DA001092E10008951F920B
:1059D0000F920FB60F9211242F933F934F935F9323
:1059E0006F937F938F939F93AF93BF93EF93FF93A7
:1059F0008091E10082FF0BC08091E20082FF07C02E
:105A00008091E1008B7F8093E1000E94F9288091D2
:105A1000DA0080FF1FC08091D80080FF1BC08091FA
:105A2000DA008E7F8093DA008091D90080FF0DC06C
:105A300080E189BD82E189BD09B400FEFDCF81E02E
:105A4000809349020E94D22805C019BC10924902D5
:105A50000E94E4288091E10080FF19C08091E2005B
:105A600080FF15C08091E2008E7F8093E2008091DC
:105A7000E20080618093E2008091D8008062809390
:105A8000D80019BC85E0809349020E94EF288091DC
:105A9000E10084FF30C08091E20084FF2CC080E1EF
:105AA00089BD82E189BD09B400FEFDCF8091D80097
:105AB0008F7D8093D8008091E1008F7E8093E100FC
:105AC0008091E2008F7E8093E2008091E20081600D
:105AD0008093E20080914502882311F084E007C0A2
